S00D000070617274322E737265632E
S10F000034008000048080103A68001076
S113002004FCFFDE150000DE3A313100260100C079
S113003004FF7FEF150140DF1502C0DF150380DDEB
S11300403A3131001E0100C0060300004C0080C597
S1130050260700B0400F0000170000DE170140DF44
S11300601702C0DF170380DD0404C0DE3A0880EF06
S11300708C0080C526F83FB00008000006F63F005B
S113008004FBFFDE150080DD1501C0DD150240DD37
S1130090150300D91504C0DF34C8BF05041480B5A6
S11300A03703C0B53503C0B534C83F05040008A5FF
S11300B03701C0A50C0140BD260800A8060A0000AF
S11300C0170080DD1701C0DD170240DD170300D9DA
S11300D01704C0DF0405C0DE3A2800F8C40100019B
S11300E0350100A106F63F00C4020001350100A15C
S11300F006F33F0004FCFFDE150000DD150140DDC2
S1130100150280DD1503C0DF34C83F05040008A5CF
S113011034C87F05040040AD84008005350080A507
S1130120370080AD440080B5350080AD170000DD98
S1130130170140DD170280DD1703C0DF0404C0DEB1
S10701403A2800F85D
S1130200B400C0060400C0DE34C83F02040000424B
S113021034C87F020400484A34C8BF020414805220
S11302203500004000240000C0260000C400C005C2
S1130230FA7001B84400C0053A7001B806FF3F00E7
S11302407400C0020440F85A3502C04A3400C002A7
S1130250447DC15A3503C04A8400C0023500C04AF7
S1130260C401C0023501C04A3A2800F8C40300039F
S10B0270350200533A2800F89E
S9030200FA
